{
  "_format": "hh-sol-artifact-1",
  "contractName": "Gobying",
  "sourceName": "contracts/Gobying.sol",
  "abi": [
    {
      "inputs": [
        {
          "internalType": "address",
          "name": "paramGovernanceTokenAddress",
          "type": "address"
        }
      ],
      "stateMutability": "nonpayable",
      "type": "constructor"
    },
    {
      "inputs": [],
      "name": "createDelegatorAccount",
      "outputs": [
        {
          "internalType": "address",
          "name": "",
          "type": "address"
        }
      ],
      "stateMutability": "nonpayable",
      "type": "function"
    },
    {
      "inputs": [
        {
          "internalType": "address",
          "name": "",
          "type": "address"
        }
      ],
      "name": "delegateeModules",
      "outputs": [
        {
          "internalType": "address",
          "name": "",
          "type": "address"
        }
      ],
      "stateMutability": "view",
      "type": "function"
    },
    {
      "inputs": [
        {
          "internalType": "address",
          "name": "",
          "type": "address"
        }
      ],
      "name": "delegatorAccountAddresses",
      "outputs": [
        {
          "internalType": "address",
          "name": "",
          "type": "address"
        }
      ],
      "stateMutability": "view",
      "type": "function"
    },
    {
      "inputs": [
        {
          "internalType": "address",
          "name": "",
          "type": "address"
        }
      ],
      "name": "delegatorAccounts",
      "outputs": [
        {
          "internalType": "contract delegatorAccount",
          "name": "",
          "type": "address"
        }
      ],
      "stateMutability": "view",
      "type": "function"
    },
    {
      "inputs": [
        {
          "internalType": "address",
          "name": "paramDelegateeAddress",
          "type": "address"
        }
      ],
      "name": "getDelegateeModuleAddress",
      "outputs": [
        {
          "internalType": "address",
          "name": "",
          "type": "address"
        }
      ],
      "stateMutability": "view",
      "type": "function"
    },
    {
      "inputs": [
        {
          "internalType": "address",
          "name": "paramDelegatorAddress",
          "type": "address"
        }
      ],
      "name": "getDelegatorAccountAddress",
      "outputs": [
        {
          "internalType": "address",
          "name": "",
          "type": "address"
        }
      ],
      "stateMutability": "view",
      "type": "function"
    },
    {
      "inputs": [],
      "name": "governanceTokenAddress",
      "outputs": [
        {
          "internalType": "address",
          "name": "",
          "type": "address"
        }
      ],
      "stateMutability": "view",
      "type": "function"
    },
    {
      "inputs": [
        {
          "internalType": "address",
          "name": "paramDelegateeModule",
          "type": "address"
        }
      ],
      "name": "registerDelegateeModule",
      "outputs": [],
      "stateMutability": "nonpayable",
      "type": "function"
    }
  ],
  "bytecode": "0x608060405234801561001057600080fd5b50604051611313380380611313833981810160405281019061003291906100db565b806000806101000a81548173ffffffffffffffffffffffffffffffffffffffff021916908373ffffffffffffffffffffffffffffffffffffffff16021790555050610108565b600080fd5b600073ffffffffffffffffffffffffffffffffffffffff82169050919050565b60006100a88261007d565b9050919050565b6100b88161009d565b81146100c357600080fd5b50565b6000815190506100d5816100af565b92915050565b6000602082840312156100f1576100f0610078565b5b60006100ff848285016100c6565b91505092915050565b6111fc806101176000396000f3fe608060405234801561001057600080fd5b50600436106100885760003560e01c80636ca061291161005b5780636ca0612914610127578063b42165d014610157578063c914a52814610175578063d094f5e5146101a557610088565b80630b9f50911461008d5780632dbdb68c146100ab57806335d6b8b4146100c75780634b9c9012146100f7575b600080fd5b6100956101d5565b6040516100a2919061066d565b60405180910390f35b6100c560048036038101906100c091906106b9565b61040f565b005b6100e160048036038101906100dc91906106b9565b610490565b6040516100ee919061066d565b60405180910390f35b610111600480360381019061010c91906106b9565b6104f9565b60405161011e9190610745565b60405180910390f35b610141600480360381019061013c91906106b9565b61052c565b60405161014e919061066d565b60405180910390f35b61015f610595565b60405161016c919061066d565b60405180910390f35b61018f600480360381019061018a91906106b9565b6105b9565b60405161019c919061066d565b60405180910390f35b6101bf60048036038101906101ba91906106b9565b6105ec565b6040516101cc919061066d565b60405180910390f35b6000803360008054906101000a900473ffffffffffffffffffffffffffffffffffffffff166040516102069061061f565b610211929190610760565b604051809103906000f08015801561022d573d6000803e3d6000fd5b50905080600360003373ffffffffffffffffffffffffffffffffffffffff1673ffffffffffffffffffffffffffffffffffffffff16815260200190815260200160002060006101000a81548173ffffffffffffffffffffffffffffffffffffffff021916908373ffffffffffffffffffffffffffffffffffffffff1602179055508073ffffffffffffffffffffffffffffffffffffffff166338cc48316040518163ffffffff1660e01b8152600401602060405180830381865afa1580156102f9573d6000803e3d6000fd5b505050506040513d601f19601f8201168201806040525081019061031d919061079e565b600260003373ffffffffffffffffffffffffffffffffffffffff1673ffffffffffffffffffffffffffffffffffffffff16815260200190815260200160002060006101000a81548173ffffffffffffffffffffffffffffffffffffffff021916908373ffffffffffffffffffffffffffffffffffffffff1602179055508073ffffffffffffffffffffffffffffffffffffffff166338cc48316040518163ffffffff1660e01b8152600401602060405180830381865afa1580156103e5573d6000803e3d6000fd5b505050506040513d601f19601f82011682018060405250810190610409919061079e565b91505090565b80600160003373ffffffffffffffffffffffffffffffffffffffff1673ffffffffffffffffffffffffffffffffffffffff16815260200190815260200160002060006101000a81548173ffffffffffffffffffffffffffffffffffffffff021916908373ffffffffffffffffffffffffffffffffffffffff16021790555050565b6000600260008373ffffffffffffffffffffffffffffffffffffffff1673ffffffffffffffffffffffffffffffffffffffff16815260200190815260200160002060009054906101000a900473ffffffffffffffffffffffffffffffffffffffff169050919050565b60036020528060005260406000206000915054906101000a900473ffffffffffffffffffffffffffffffffffffffff1681565b6000600160008373ffffffffffffffffffffffffffffffffffffffff1673ffffffffffffffffffffffffffffffffffffffff16815260200190815260200160002060009054906101000a900473ffffffffffffffffffffffffffffffffffffffff169050919050565b60008054906101000a900473ffffffffffffffffffffffffffffffffffffffff1681565b60026020528060005260406000206000915054906101000a900473ffffffffffffffffffffffffffffffffffffffff1681565b60016020528060005260406000206000915054906101000a900473ffffffffffffffffffffffffffffffffffffffff1681565b6109fb806107cc83390190565b600073ffffffffffffffffffffffffffffffffffffffff82169050919050565b60006106578261062c565b9050919050565b6106678161064c565b82525050565b6000602082019050610682600083018461065e565b92915050565b600080fd5b6106968161064c565b81146106a157600080fd5b50565b6000813590506106b38161068d565b92915050565b6000602082840312156106cf576106ce610688565b5b60006106dd848285016106a4565b91505092915050565b6000819050919050565b600061070b6107066107018461062c565b6106e6565b61062c565b9050919050565b600061071d826106f0565b9050919050565b600061072f82610712565b9050919050565b61073f81610724565b82525050565b600060208201905061075a6000830184610736565b92915050565b6000604082019050610775600083018561065e565b610782602083018461065e565b9392505050565b6000815190506107988161068d565b92915050565b6000602082840312156107b4576107b3610688565b5b60006107c284828501610789565b9150509291505056fe608060405234801561001057600080fd5b506040516109fb3803806109fb8339818101604052810190610032919061015e565b816000806101000a81548173ffffffffffffffffffffffffffffffffffffffff021916908373ffffffffffffffffffffffffffffffffffffffff16021790555033600160006101000a81548173ffffffffffffffffffffffffffffffffffffffff021916908373ffffffffffffffffffffffffffffffffffffffff16021790555080600260006101000a81548173ffffffffffffffffffffffffffffffffffffffff021916908373ffffffffffffffffffffffffffffffffffffffff160217905550505061019e565b600080fd5b600073ffffffffffffffffffffffffffffffffffffffff82169050919050565b600061012b82610100565b9050919050565b61013b81610120565b811461014657600080fd5b50565b60008151905061015881610132565b92915050565b60008060408385031215610175576101746100fb565b5b600061018385828601610149565b925050602061019485828601610149565b9150509250929050565b61084e806101ad6000396000f3fe608060405234801561001057600080fd5b50600436106100625760003560e01c80630f68196a1461006757806338cc4831146100835780638da5cb5b146100a1578063b9bdf8fb146100bf578063d755ecaa146100dd578063f1c5ac71146100e7575b600080fd5b610081600480360381019061007c9190610596565b610105565b005b61008b610271565b60405161009891906105d2565b60405180910390f35b6100a9610279565b6040516100b691906105d2565b60405180910390f35b6100c761029d565b6040516100d491906105d2565b60405180910390f35b6100e56102c3565b005b6100ef61050d565b6040516100fc91906105d2565b60405180910390f35b600260009054906101000a900473ffffffffffffffffffffffffffffffffffffffff1673ffffffffffffffffffffffffffffffffffffffff16635c19a95c826040518263ffffffff1660e01b815260040161016091906105d2565b600060405180830381600087803b15801561017a57600080fd5b505af115801561018e573d6000803e3d6000fd5b505050508073ffffffffffffffffffffffffffffffffffffffff1663313407af6040518163ffffffff1660e01b8152600401602060405180830381865afa1580156101dd573d6000803e3d6000fd5b505050506040513d601f19601f820116820180604052508101906102019190610602565b73ffffffffffffffffffffffffffffffffffffffff168173ffffffffffffffffffffffffffffffffffffffff161461026e576040517f08c379a00000000000000000000000000000000000000000000000000000000081526004016102659061068c565b60405180910390fd5b50565b600030905090565b60008054906101000a900473ffffffffffffffffffffffffffffffffffffffff1681565b600160009054906101000a900473ffffffffffffffffffffffffffffffffffffffff1681565b60008054906101000a900473ffffffffffffffffffffffffffffffffffffffff1673ffffffffffffffffffffffffffffffffffffffff163373ffffffffffffffffffffffffffffffffffffffff16148061036a5750600160009054906101000a900473ffffffffffffffffffffffffffffffffffffffff1673ffffffffffffffffffffffffffffffffffffffff163373ffffffffffffffffffffffffffffffffffffffff16145b6103a9576040517f08c379a00000000000000000000000000000000000000000000000000000000081526004016103a0906106f8565b60405180910390fd5b6000600260009054906101000a900473ffffffffffffffffffffffffffffffffffffffff1673ffffffffffffffffffffffffffffffffffffffff166370a08231306040518263ffffffff1660e01b815260040161040691906105d2565b602060405180830381865afa158015610423573d6000803e3d6000fd5b505050506040513d601f19601f82011682018060405250810190610447919061074e565b9050600260009054906101000a900473ffffffffffffffffffffffffffffffffffffffff1673ffffffffffffffffffffffffffffffffffffffff1663a9059cbb60008054906101000a900473ffffffffffffffffffffffffffffffffffffffff16836040518363ffffffff1660e01b81526004016104c692919061078a565b6020604051808303816000875af11580156104e5573d6000803e3d6000fd5b505050506040513d601f19601f8201168201806040525081019061050991906107eb565b5050565b600260009054906101000a900473ffffffffffffffffffffffffffffffffffffffff1681565b600080fd5b600073ffffffffffffffffffffffffffffffffffffffff82169050919050565b600061056382610538565b9050919050565b61057381610558565b811461057e57600080fd5b50565b6000813590506105908161056a565b92915050565b6000602082840312156105ac576105ab610533565b5b60006105ba84828501610581565b91505092915050565b6105cc81610558565b82525050565b60006020820190506105e760008301846105c3565b92915050565b6000815190506105fc8161056a565b92915050565b60006020828403121561061857610617610533565b5b6000610626848285016105ed565b91505092915050565b600082825260208201905092915050565b7f44656c65676174696f6e206661696c65642e0000000000000000000000000000600082015250565b600061067660128361062f565b915061068182610640565b602082019050919050565b600060208201905081810360008301526106a581610669565b9050919050565b7f4e6f74206f776e6572206f7220676f7679696e672e0000000000000000000000600082015250565b60006106e260158361062f565b91506106ed826106ac565b602082019050919050565b60006020820190508181036000830152610711816106d5565b9050919050565b6000819050919050565b61072b81610718565b811461073657600080fd5b50565b60008151905061074881610722565b92915050565b60006020828403121561076457610763610533565b5b600061077284828501610739565b91505092915050565b61078481610718565b82525050565b600060408201905061079f60008301856105c3565b6107ac602083018461077b565b9392505050565b60008115159050919050565b6107c8816107b3565b81146107d357600080fd5b50565b6000815190506107e5816107bf565b92915050565b60006020828403121561080157610800610533565b5b600061080f848285016107d6565b9150509291505056fea264697066735822122099c97f9786f177c83c34cc09843f3e1b20371aa9f3e5157ab6decfc8c1843a3b64736f6c63430008180033a2646970667358221220bda4546385d9621e6a689285cae3f2f68806167cc9c5fbf670fc23634aa8feca64736f6c63430008180033",
  "linkReferences": {},
  "deployedLinkReferences": {}
}