{
  "_format": "hh-sol-artifact-1",
  "contractName": "GovernanceToken",
  "sourceName": "contracts/GovernanceToken.sol",
  "abi": [
    {
      "inputs": [],
      "stateMutability": "nonpayable",
      "type": "constructor"
    },
    {
      "anonymous": false,
      "inputs": [
        {
          "indexed": true,
          "internalType": "address",
          "name": "owner",
          "type": "address"
        },
        {
          "indexed": true,
          "internalType": "address",
          "name": "spender",
          "type": "address"
        },
        {
          "indexed": false,
          "internalType": "uint256",
          "name": "value",
          "type": "uint256"
        }
      ],
      "name": "Approval",
      "type": "event"
    },
    {
      "anonymous": false,
      "inputs": [
        {
          "indexed": true,
          "internalType": "address",
          "name": "delegator",
          "type": "address"
        },
        {
          "indexed": true,
          "internalType": "address",
          "name": "fromDelegate",
          "type": "address"
        },
        {
          "indexed": true,
          "internalType": "address",
          "name": "toDelegate",
          "type": "address"
        }
      ],
      "name": "DelegateChanged",
      "type": "event"
    },
    {
      "anonymous": false,
      "inputs": [
        {
          "indexed": true,
          "internalType": "address",
          "name": "delegate",
          "type": "address"
        },
        {
          "indexed": false,
          "internalType": "uint256",
          "name": "previousBalance",
          "type": "uint256"
        },
        {
          "indexed": false,
          "internalType": "uint256",
          "name": "newBalance",
          "type": "uint256"
        }
      ],
      "name": "DelegateVotesChanged",
      "type": "event"
    },
    {
      "anonymous": false,
      "inputs": [
        {
          "indexed": true,
          "internalType": "address",
          "name": "previousOwner",
          "type": "address"
        },
        {
          "indexed": true,
          "internalType": "address",
          "name": "newOwner",
          "type": "address"
        }
      ],
      "name": "OwnershipTransferred",
      "type": "event"
    },
    {
      "anonymous": false,
      "inputs": [
        {
          "indexed": true,
          "internalType": "address",
          "name": "from",
          "type": "address"
        },
        {
          "indexed": true,
          "internalType": "address",
          "name": "to",
          "type": "address"
        },
        {
          "indexed": false,
          "internalType": "uint256",
          "name": "value",
          "type": "uint256"
        }
      ],
      "name": "Transfer",
      "type": "event"
    },
    {
      "inputs": [],
      "name": "DOMAIN_SEPARATOR",
      "outputs": [
        {
          "internalType": "bytes32",
          "name": "",
          "type": "bytes32"
        }
      ],
      "stateMutability": "view",
      "type": "function"
    },
    {
      "inputs": [
        {
          "internalType": "address",
          "name": "owner",
          "type": "address"
        },
        {
          "internalType": "address",
          "name": "spender",
          "type": "address"
        }
      ],
      "name": "allowance",
      "outputs": [
        {
          "internalType": "uint256",
          "name": "",
          "type": "uint256"
        }
      ],
      "stateMutability": "view",
      "type": "function"
    },
    {
      "inputs": [
        {
          "internalType": "address",
          "name": "spender",
          "type": "address"
        },
        {
          "internalType": "uint256",
          "name": "amount",
          "type": "uint256"
        }
      ],
      "name": "approve",
      "outputs": [
        {
          "internalType": "bool",
          "name": "",
          "type": "bool"
        }
      ],
      "stateMutability": "nonpayable",
      "type": "function"
    },
    {
      "inputs": [
        {
          "internalType": "address",
          "name": "account",
          "type": "address"
        }
      ],
      "name": "balanceOf",
      "outputs": [
        {
          "internalType": "uint256",
          "name": "",
          "type": "uint256"
        }
      ],
      "stateMutability": "view",
      "type": "function"
    },
    {
      "inputs": [
        {
          "internalType": "uint256",
          "name": "amount",
          "type": "uint256"
        }
      ],
      "name": "burn",
      "outputs": [],
      "stateMutability": "nonpayable",
      "type": "function"
    },
    {
      "inputs": [
        {
          "internalType": "address",
          "name": "account",
          "type": "address"
        },
        {
          "internalType": "uint256",
          "name": "amount",
          "type": "uint256"
        }
      ],
      "name": "burnFrom",
      "outputs": [],
      "stateMutability": "nonpayable",
      "type": "function"
    },
    {
      "inputs": [
        {
          "internalType": "address",
          "name": "account",
          "type": "address"
        },
        {
          "internalType": "uint32",
          "name": "pos",
          "type": "uint32"
        }
      ],
      "name": "checkpoints",
      "outputs": [
        {
          "components": [
            {
              "internalType": "uint32",
              "name": "fromBlock",
              "type": "uint32"
            },
            {
              "internalType": "uint224",
              "name": "votes",
              "type": "uint224"
            }
          ],
          "internalType": "struct ERC20Votes.Checkpoint",
          "name": "",
          "type": "tuple"
        }
      ],
      "stateMutability": "view",
      "type": "function"
    },
    {
      "inputs": [],
      "name": "decimals",
      "outputs": [
        {
          "internalType": "uint8",
          "name": "",
          "type": "uint8"
        }
      ],
      "stateMutability": "view",
      "type": "function"
    },
    {
      "inputs": [
        {
          "internalType": "address",
          "name": "spender",
          "type": "address"
        },
        {
          "internalType": "uint256",
          "name": "subtractedValue",
          "type": "uint256"
        }
      ],
      "name": "decreaseAllowance",
      "outputs": [
        {
          "internalType": "bool",
          "name": "",
          "type": "bool"
        }
      ],
      "stateMutability": "nonpayable",
      "type": "function"
    },
    {
      "inputs": [
        {
          "internalType": "address",
          "name": "delegatee",
          "type": "address"
        }
      ],
      "name": "delegate",
      "outputs": [],
      "stateMutability": "nonpayable",
      "type": "function"
    },
    {
      "inputs": [
        {
          "internalType": "address",
          "name": "delegatee",
          "type": "address"
        },
        {
          "internalType": "uint256",
          "name": "nonce",
          "type": "uint256"
        },
        {
          "internalType": "uint256",
          "name": "expiry",
          "type": "uint256"
        },
        {
          "internalType": "uint8",
          "name": "v",
          "type": "uint8"
        },
        {
          "internalType": "bytes32",
          "name": "r",
          "type": "bytes32"
        },
        {
          "internalType": "bytes32",
          "name": "s",
          "type": "bytes32"
        }
      ],
      "name": "delegateBySig",
      "outputs": [],
      "stateMutability": "nonpayable",
      "type": "function"
    },
    {
      "inputs": [
        {
          "internalType": "address",
          "name": "account",
          "type": "address"
        }
      ],
      "name": "delegates",
      "outputs": [
        {
          "internalType": "address",
          "name": "",
          "type": "address"
        }
      ],
      "stateMutability": "view",
      "type": "function"
    },
    {
      "inputs": [
        {
          "internalType": "uint256",
          "name": "blockNumber",
          "type": "uint256"
        }
      ],
      "name": "getPastTotalSupply",
      "outputs": [
        {
          "internalType": "uint256",
          "name": "",
          "type": "uint256"
        }
      ],
      "stateMutability": "view",
      "type": "function"
    },
    {
      "inputs": [
        {
          "internalType": "address",
          "name": "account",
          "type": "address"
        },
        {
          "internalType": "uint256",
          "name": "blockNumber",
          "type": "uint256"
        }
      ],
      "name": "getPastVotes",
      "outputs": [
        {
          "internalType": "uint256",
          "name": "",
          "type": "uint256"
        }
      ],
      "stateMutability": "view",
      "type": "function"
    },
    {
      "inputs": [
        {
          "internalType": "address",
          "name": "account",
          "type": "address"
        }
      ],
      "name": "getVotes",
      "outputs": [
        {
          "internalType": "uint256",
          "name": "",
          "type": "uint256"
        }
      ],
      "stateMutability": "view",
      "type": "function"
    },
    {
      "inputs": [
        {
          "internalType": "address",
          "name": "spender",
          "type": "address"
        },
        {
          "internalType": "uint256",
          "name": "addedValue",
          "type": "uint256"
        }
      ],
      "name": "increaseAllowance",
      "outputs": [
        {
          "internalType": "bool",
          "name": "",
          "type": "bool"
        }
      ],
      "stateMutability": "nonpayable",
      "type": "function"
    },
    {
      "inputs": [
        {
          "internalType": "address",
          "name": "_account",
          "type": "address"
        },
        {
          "internalType": "uint256",
          "name": "_amount",
          "type": "uint256"
        }
      ],
      "name": "mint",
      "outputs": [],
      "stateMutability": "nonpayable",
      "type": "function"
    },
    {
      "inputs": [],
      "name": "name",
      "outputs": [
        {
          "internalType": "string",
          "name": "",
          "type": "string"
        }
      ],
      "stateMutability": "view",
      "type": "function"
    },
    {
      "inputs": [
        {
          "internalType": "address",
          "name": "owner",
          "type": "address"
        }
      ],
      "name": "nonces",
      "outputs": [
        {
          "internalType": "uint256",
          "name": "",
          "type": "uint256"
        }
      ],
      "stateMutability": "view",
      "type": "function"
    },
    {
      "inputs": [
        {
          "internalType": "address",
          "name": "account",
          "type": "address"
        }
      ],
      "name": "numCheckpoints",
      "outputs": [
        {
          "internalType": "uint32",
          "name": "",
          "type": "uint32"
        }
      ],
      "stateMutability": "view",
      "type": "function"
    },
    {
      "inputs": [],
      "name": "owner",
      "outputs": [
        {
          "internalType": "address",
          "name": "",
          "type": "address"
        }
      ],
      "stateMutability": "view",
      "type": "function"
    },
    {
      "inputs": [
        {
          "internalType": "address",
          "name": "owner",
          "type": "address"
        },
        {
          "internalType": "address",
          "name": "spender",
          "type": "address"
        },
        {
          "internalType": "uint256",
          "name": "value",
          "type": "uint256"
        },
        {
          "internalType": "uint256",
          "name": "deadline",
          "type": "uint256"
        },
        {
          "internalType": "uint8",
          "name": "v",
          "type": "uint8"
        },
        {
          "internalType": "bytes32",
          "name": "r",
          "type": "bytes32"
        },
        {
          "internalType": "bytes32",
          "name": "s",
          "type": "bytes32"
        }
      ],
      "name": "permit",
      "outputs": [],
      "stateMutability": "nonpayable",
      "type": "function"
    },
    {
      "inputs": [],
      "name": "renounceOwnership",
      "outputs": [],
      "stateMutability": "nonpayable",
      "type": "function"
    },
    {
      "inputs": [],
      "name": "symbol",
      "outputs": [
        {
          "internalType": "string",
          "name": "",
          "type": "string"
        }
      ],
      "stateMutability": "view",
      "type": "function"
    },
    {
      "inputs": [],
      "name": "totalSupply",
      "outputs": [
        {
          "internalType": "uint256",
          "name": "",
          "type": "uint256"
        }
      ],
      "stateMutability": "view",
      "type": "function"
    },
    {
      "inputs": [
        {
          "internalType": "address",
          "name": "to",
          "type": "address"
        },
        {
          "internalType": "uint256",
          "name": "amount",
          "type": "uint256"
        }
      ],
      "name": "transfer",
      "outputs": [
        {
          "internalType": "bool",
          "name": "",
          "type": "bool"
        }
      ],
      "stateMutability": "nonpayable",
      "type": "function"
    },
    {
      "inputs": [
        {
          "internalType": "address",
          "name": "from",
          "type": "address"
        },
        {
          "internalType": "address",
          "name": "to",
          "type": "address"
        },
        {
          "internalType": "uint256",
          "name": "amount",
          "type": "uint256"
        }
      ],
      "name": "transferFrom",
      "outputs": [
        {
          "internalType": "bool",
          "name": "",
          "type": "bool"
        }
      ],
      "stateMutability": "nonpayable",
      "type": "function"
    },
    {
      "inputs": [
        {
          "internalType": "address",
          "name": "newOwner",
          "type": "address"
        }
      ],
      "name": "transferOwnership",
      "outputs": [],
      "stateMutability": "nonpayable",
      "type": "function"
    }
  ],
  "bytecode": "0x6101606040527f6e71edae12b1b97f4d1f60370fef10105fa2faae0126114a169c64845d6126c9610140908152503480156200003a57600080fd5b506040518060400160405280600881526020017f4f7074696d69736d000000000000000000000000000000000000000000000000815250806040518060400160405280600181526020017f31000000000000000000000000000000000000000000000000000000000000008152506040518060400160405280600881526020017f4f7074696d69736d0000000000000000000000000000000000000000000000008152506040518060400160405280600281526020017f4f50000000000000000000000000000000000000000000000000000000000000815250816003908162000125919062000597565b50806004908162000137919062000597565b50505060008280519060200120905060008280519060200120905060007f8b73c3c69bb8fe3d512ecc4cf759cc79239f7b179b0ffacaa9a75d522b39400f90508260e081815250508161010081815250504660a08181525050620001a38184846200021360201b60201c565b608081815250503073ffffffffffffffffffffffffffffffffffffffff1660c08173ffffffffffffffffffffffffffffffffffffffff16815250508061012081815250505050505050506200020d620002016200024f60201b60201c565b6200025760201b60201c565b6200074c565b6000838383463060405160200162000230959493929190620006ef565b6040516020818303038152906040528051906020012090509392505050565b600033905090565b6000600960009054906101000a900473ffffffffffffffffffffffffffffffffffffffff16905081600960006101000a81548173ffffffffffffffffffffffffffffffffffffffff021916908373ffffffffffffffffffffffffffffffffffffffff1602179055508173ffffffffffffffffffffffffffffffffffffffff168173ffffffffffffffffffffffffffffffffffffffff167f8be0079c531659141344cd1fd0a4f28419497f9722a3daafe3b4186f6b6457e060405160405180910390a35050565b600081519050919050565b7f4e487b7100000000000000000000000000000000000000000000000000000000600052604160045260246000fd5b7f4e487b7100000000000000000000000000000000000000000000000000000000600052602260045260246000fd5b600060028204905060018216806200039f57607f821691505b602082108103620003b557620003b462000357565b5b50919050565b60008190508160005260206000209050919050565b60006020601f8301049050919050565b600082821b905092915050565b6000600883026200041f7fffffffffffffffffffffffffffffffffffffffffffffffffffffffffffffffff82620003e0565b6200042b8683620003e0565b95508019841693508086168417925050509392505050565b6000819050919050565b6000819050919050565b600062000478620004726200046c8462000443565b6200044d565b62000443565b9050919050565b6000819050919050565b620004948362000457565b620004ac620004a3826200047f565b848454620003ed565b825550505050565b600090565b620004c3620004b4565b620004d081848462000489565b505050565b5b81811015620004f857620004ec600082620004b9565b600181019050620004d6565b5050565b601f82111562000547576200051181620003bb565b6200051c84620003d0565b810160208510156200052c578190505b620005446200053b85620003d0565b830182620004d5565b50505b505050565b600082821c905092915050565b60006200056c600019846008026200054c565b1980831691505092915050565b600062000587838362000559565b9150826002028217905092915050565b620005a2826200031d565b67ffffffffffffffff811115620005be57620005bd62000328565b5b620005ca825462000386565b620005d7828285620004fc565b600060209050601f8311600181146200060f5760008415620005fa578287015190505b62000606858262000579565b86555062000676565b601f1984166200061f86620003bb565b60005b82811015620006495784890151825560018201915060208501945060208101905062000622565b8683101562000669578489015162000665601f89168262000559565b8355505b6001600288020188555050505b505050505050565b6000819050919050565b62000693816200067e565b82525050565b620006a48162000443565b82525050565b600073ffffffffffffffffffffffffffffffffffffffff82169050919050565b6000620006d782620006aa565b9050919050565b620006e981620006ca565b82525050565b600060a08201905062000706600083018862000688565b62000715602083018762000688565b62000724604083018662000688565b62000733606083018562000699565b620007426080830184620006de565b9695505050505050565b60805160a05160c05160e051610100516101205161014051614053620007a76000396000610f590152600061186c015260006118ae0152600061188d015260006117c2015260006118180152600061184101526140536000f3fe608060405234801561001057600080fd5b50600436106101c45760003560e01c8063715018a6116100f9578063a457c2d711610097578063d505accf11610071578063d505accf14610553578063dd62ed3e1461056f578063f1127ed81461059f578063f2fde38b146105cf576101c4565b8063a457c2d7146104d7578063a9059cbb14610507578063c3cda52014610537576101c4565b80638da5cb5b116100d35780638da5cb5b1461043b5780638e539e8c1461045957806395d89b41146104895780639ab24eb0146104a7576101c4565b8063715018a6146103e557806379cc6790146103ef5780637ecebe001461040b576101c4565b80633a46b1a811610166578063587cde1e11610140578063587cde1e146103395780635c19a95c146103695780636fcfff451461038557806370a08231146103b5576101c4565b80633a46b1a8146102d157806340c10f191461030157806342966c681461031d576101c4565b806323b872dd116101a257806323b872dd14610235578063313ce567146102655780633644e5151461028357806339509351146102a1576101c4565b806306fdde03146101c9578063095ea7b3146101e757806318160ddd14610217575b600080fd5b6101d16105eb565b6040516101de9190612a84565b60405180910390f35b61020160048036038101906101fc9190612b3f565b61067d565b60405161020e9190612b9a565b60405180910390f35b61021f6106a0565b60405161022c9190612bc4565b60405180910390f35b61024f600480360381019061024a9190612bdf565b6106aa565b60405161025c9190612b9a565b60405180910390f35b61026d6106d9565b60405161027a9190612c4e565b60405180910390f35b61028b6106e2565b6040516102989190612c82565b60405180910390f35b6102bb60048036038101906102b69190612b3f565b6106f1565b6040516102c89190612b9a565b60405180910390f35b6102eb60048036038101906102e69190612b3f565b61079b565b6040516102f89190612bc4565b60405180910390f35b61031b60048036038101906103169190612b3f565b61082f565b005b61033760048036038101906103329190612c9d565b6108b9565b005b610353600480360381019061034e9190612cca565b6108cd565b6040516103609190612d06565b60405180910390f35b610383600480360381019061037e9190612cca565b610936565b005b61039f600480360381019061039a9190612cca565b61094a565b6040516103ac9190612d40565b60405180910390f35b6103cf60048036038101906103ca9190612cca565b61099e565b6040516103dc9190612bc4565b60405180910390f35b6103ed6109e6565b005b61040960048036038101906104049190612b3f565b610a6e565b005b61042560048036038101906104209190612cca565b610a8e565b6040516104329190612bc4565b60405180910390f35b610443610ade565b6040516104509190612d06565b60405180910390f35b610473600480360381019061046e9190612c9d565b610b08565b6040516104809190612bc4565b60405180910390f35b610491610b5e565b60405161049e9190612a84565b60405180910390f35b6104c160048036038101906104bc9190612cca565b610bf0565b6040516104ce9190612bc4565b60405180910390f35b6104f160048036038101906104ec9190612b3f565b610d01565b6040516104fe9190612b9a565b60405180910390f35b610521600480360381019061051c9190612b3f565b610deb565b60405161052e9190612b9a565b60405180910390f35b610551600480360381019061054c9190612db3565b610e0e565b005b61056d60048036038101906105689190612e40565b610f12565b005b61058960048036038101906105849190612ee2565b611054565b6040516105969190612bc4565b60405180910390f35b6105b960048036038101906105b49190612f4e565b6110db565b6040516105c69190613003565b60405180910390f35b6105e960048036038101906105e49190612cca565b6111eb565b005b6060600380546105fa9061304d565b80601f01602080910402602001604051908101604052809291908181526020018280546106269061304d565b80156106735780601f1061064857610100808354040283529160200191610673565b820191906000526020600020905b81548152906001019060200180831161065657829003601f168201915b5050505050905090565b6000806106886112e2565b90506106958185856112ea565b600191505092915050565b6000600254905090565b6000806106b56112e2565b90506106c28582856114b3565b6106cd85858561153f565b60019150509392505050565b60006012905090565b60006106ec6117be565b905090565b6000806106fc6112e2565b9050610790818585600160008673ffffffffffffffffffffffffffffffffffffffff1673ffffffffffffffffffffffffffffffffffffffff16815260200190815260200160002060008973ffffffffffffffffffffffffffffffffffffffff1673ffffffffffffffffffffffffffffffffffffffff1681526020019081526020016000205461078b91906130ad565b6112ea565b600191505092915050565b60004382106107df576040517f08c379a00000000000000000000000000000000000000000000000000000000081526004016107d69061312d565b60405180910390fd5b610827600760008573ffffffffffffffffffffffffffffffffffffffff1673ffffffffffffffffffffffffffffffffffffffff168152602001908152602001600020836118d8565b905092915050565b6108376112e2565b73ffffffffffffffffffffffffffffffffffffffff16610855610ade565b73ffffffffffffffffffffffffffffffffffffffff16146108ab576040517f08c379a00000000000000000000000000000000000000000000000000000000081526004016108a290613199565b60405180910390fd5b6108b582826119e4565b5050565b6108ca6108c46112e2565b826119f2565b50565b6000600660008373ffffffffffffffffffffffffffffffffffffffff1673ffffffffffffffffffffffffffffffffffffffff16815260200190815260200160002060009054906101000a900473ffffffffffffffffffffffffffffffffffffffff169050919050565b6109476109416112e2565b82611a00565b50565b6000610997600760008473ffffffffffffffffffffffffffffffffffffffff1673ffffffffffffffffffffffffffffffffffffffff16815260200190815260200160002080549050611b1a565b9050919050565b60008060008373ffffffffffffffffffffffffffffffffffffffff1673ffffffffffffffffffffffffffffffffffffffff168152602001908152602001600020549050919050565b6109ee6112e2565b73ffffffffffffffffffffffffffffffffffffffff16610a0c610ade565b73ffffffffffffffffffffffffffffffffffffffff1614610a62576040517f08c379a0000000000000000000000000000000000000000000000000000000008152600401610a5990613199565b60405180910390fd5b610a6c6000611b6d565b565b610a8082610a7a6112e2565b836114b3565b610a8a82826119f2565b5050565b6000610ad7600560008473ffffffffffffffffffffffffffffffffffffffff1673ffffffffffffffffffffffffffffffffffffffff168152602001908152602001600020611c33565b9050919050565b6000600960009054906101000a900473ffffffffffffffffffffffffffffffffffffffff16905090565b6000438210610b4c576040517f08c379a0000000000000000000000000000000000000000000000000000000008152600401610b439061312d565b60405180910390fd5b610b576008836118d8565b9050919050565b606060048054610b6d9061304d565b80601f0160208091040260200160405190810160405280929190818152602001828054610b999061304d565b8015610be65780601f10610bbb57610100808354040283529160200191610be6565b820191906000526020600020905b815481529060010190602001808311610bc957829003601f168201915b5050505050905090565b600080600760008473ffffffffffffffffffffffffffffffffffffffff1673ffffffffffffffffffffffffffffffffffffffff16815260200190815260200160002080549050905060008114610cd857600760008473ffffffffffffffffffffffffffffffffffffffff1673ffffffffffffffffffffffffffffffffffffffff168152602001908152602001600020600182610c8c91906131b9565b81548110610c9d57610c9c6131ed565b5b9060005260206000200160000160049054906101000a90047bffffffffffffffffffffffffffffffffffffffffffffffffffffffff16610cdb565b60005b7bffffffffffffffffffffffffffffffffffffffffffffffffffffffff16915050919050565b600080610d0c6112e2565b90506000600160008373ffffffffffffffffffffffffffffffffffffffff1673ffffffffffffffffffffffffffffffffffffffff16815260200190815260200160002060008673ffffffffffffffffffffffffffffffffffffffff1673ffffffffffffffffffffffffffffffffffffffff16815260200190815260200160002054905083811015610dd2576040517f08c379a0000000000000000000000000000000000000000000000000000000008152600401610dc99061328e565b60405180910390fd5b610ddf82868684036112ea565b60019250505092915050565b600080610df66112e2565b9050610e0381858561153f565b600191505092915050565b83421115610e51576040517f08c379a0000000000000000000000000000000000000000000000000000000008152600401610e48906132fa565b60405180910390fd5b6000610eb3610eab7fe48329057bfd03d55e49b547132e39cffd9c1820ad7b9d4c5307691425d15adf898989604051602001610e90949392919061331a565b60405160208183030381529060405280519060200120611c41565b858585611c5b565b9050610ebe81611c86565b8614610eff576040517f08c379a0000000000000000000000000000000000000000000000000000000008152600401610ef6906133ab565b60405180910390fd5b610f098188611a00565b50505050505050565b83421115610f55576040517f08c379a0000000000000000000000000000000000000000000000000000000008152600401610f4c90613417565b60405180910390fd5b60007f0000000000000000000000000000000000000000000000000000000000000000888888610f848c611c86565b89604051602001610f9a96959493929190613437565b6040516020818303038152906040528051906020012090506000610fbd82611c41565b90506000610fcd82878787611c5b565b90508973ffffffffffffffffffffffffffffffffffffffff168173ffffffffffffffffffffffffffffffffffffffff161461103d576040517f08c379a0000000000000000000000000000000000000000000000000000000008152600401611034906134e4565b60405180910390fd5b6110488a8a8a6112ea565b50505050505050505050565b6000600160008473ffffffffffffffffffffffffffffffffffffffff1673ffffffffffffffffffffffffffffffffffffffff16815260200190815260200160002060008373ffffffffffffffffffffffffffffffffffffffff1673ffffffffffffffffffffffffffffffffffffffff16815260200190815260200160002054905092915050565b6110e36129b6565b600760008473ffffffffffffffffffffffffffffffffffffffff1673ffffffffffffffffffffffffffffffffffffffff1681526020019081526020016000208263ffffffff168154811061113a576111396131ed565b5b906000526020600020016040518060400160405290816000820160009054906101000a900463ffffffff1663ffffffff1663ffffffff1681526020016000820160049054906101000a90047bffffffffffffffffffffffffffffffffffffffffffffffffffffffff167bffffffffffffffffffffffffffffffffffffffffffffffffffffffff167bffffffffffffffffffffffffffffffffffffffffffffffffffffffff1681525050905092915050565b6111f36112e2565b73ffffffffffffffffffffffffffffffffffffffff16611211610ade565b73ffffffffffffffffffffffffffffffffffffffff1614611267576040517f08c379a000000000000000000000000000000000000000000000000000000000815260040161125e90613199565b60405180910390fd5b600073ffffffffffffffffffffffffffffffffffffffff168173ffffffffffffffffffffffffffffffffffffffff16036112d6576040517f08c379a00000000000000000000000000000000000000000000000000000000081526004016112cd90613576565b60405180910390fd5b6112df81611b6d565b50565b600033905090565b600073ffffffffffffffffffffffffffffffffffffffff168373ffffffffffffffffffffffffffffffffffffffff1603611359576040517f08c379a000000000000000000000000000000000000000000000000000000000815260040161135090613608565b60405180910390fd5b600073ffffffffffffffffffffffffffffffffffffffff168273ffffffffffffffffffffffffffffffffffffffff16036113c8576040517f08c379a00000000000000000000000000000000000000000000000000000000081526004016113bf9061369a565b60405180910390fd5b80600160008573ffffffffffffffffffffffffffffffffffffffff1673ffffffffffffffffffffffffffffffffffffffff16815260200190815260200160002060008473ffffffffffffffffffffffffffffffffffffffff1673ffffffffffffffffffffffffffffffffffffffff168152602001908152602001600020819055508173ffffffffffffffffffffffffffffffffffffffff168373ffffffffffffffffffffffffffffffffffffffff167f8c5be1e5ebec7d5bd14f71427d1e84f3dd0314c0f7b2291e5b200ac8c7c3b925836040516114a69190612bc4565b60405180910390a3505050565b60006114bf8484611054565b90507fffffffffffffffffffffffffffffffffffffffffffffffffffffffffffffffff8114611539578181101561152b576040517f08c379a000000000000000000000000000000000000000000000000000000000815260040161152290613706565b60405180910390fd5b61153884848484036112ea565b5b50505050565b600073ffffffffffffffffffffffffffffffffffffffff168373ffffffffffffffffffffffffffffffffffffffff16036115ae576040517f08c379a00000000000000000000000000000000000000000000000000000000081526004016115a590613798565b60405180910390fd5b600073ffffffffffffffffffffffffffffffffffffffff168273ffffffffffffffffffffffffffffffffffffffff160361161d576040517f08c379a00000000000000000000000000000000000000000000000000000000081526004016116149061382a565b60405180910390fd5b611628838383611ce4565b60008060008573ffffffffffffffffffffffffffffffffffffffff1673ffffffffffffffffffffffffffffffffffffffff168152602001908152602001600020549050818110156116ae576040517f08c379a00000000000000000000000000000000000000000000000000000000081526004016116a5906138bc565b60405180910390fd5b8181036000808673ffffffffffffffffffffffffffffffffffffffff1673ffffffffffffffffffffffffffffffffffffffff16815260200190815260200160002081905550816000808573ffffffffffffffffffffffffffffffffffffffff1673ffffffffffffffffffffffffffffffffffffffff168152602001908152602001600020600082825461174191906130ad565b925050819055508273ffffffffffffffffffffffffffffffffffffffff168473ffffffffffffffffffffffffffffffffffffffff167fddf252ad1be2c89b69c2b068fc378daa952ba7f163c4a11628f55a4df523b3ef846040516117a59190612bc4565b60405180910390a36117b8848484611ce9565b50505050565b60007f000000000000000000000000000000000000000000000000000000000000000073ffffffffffffffffffffffffffffffffffffffff163073ffffffffffffffffffffffffffffffffffffffff1614801561183a57507f000000000000000000000000000000000000000000000000000000000000000046145b15611867577f000000000000000000000000000000000000000000000000000000000000000090506118d5565b6118d27f00000000000000000000000000000000000000000000000000000000000000007f00000000000000000000000000000000000000000000000000000000000000007f0000000000000000000000000000000000000000000000000000000000000000611cf9565b90505b90565b6000808380549050905060005b818110156119575760006118f98284611d33565b90508486828154811061190f5761190e6131ed565b5b9060005260206000200160000160009054906101000a900463ffffffff1663ffffffff16111561194157809250611951565b60018161194e91906130ad565b91505b506118e5565b600082146119b9578460018361196d91906131b9565b8154811061197e5761197d6131ed565b5b9060005260206000200160000160049054906101000a90047bffffffffffffffffffffffffffffffffffffffffffffffffffffffff166119bc565b60005b7bffffffffffffffffffffffffffffffffffffffffffffffffffffffff169250505092915050565b6119ee8282611d59565b5050565b6119fc8282611de6565b5050565b6000611a0b836108cd565b90506000611a188461099e565b905082600660008673ffffffffffffffffffffffffffffffffffffffff1673ffffffffffffffffffffffffffffffffffffffff16815260200190815260200160002060006101000a81548173ffffffffffffffffffffffffffffffffffffffff021916908373ffffffffffffffffffffffffffffffffffffffff1602179055508273ffffffffffffffffffffffffffffffffffffffff168273ffffffffffffffffffffffffffffffffffffffff168573ffffffffffffffffffffffffffffffffffffffff167f3134e8a2e6d97e929a7e54011ea5485d7d196dd5f0ba4d4ef95803e8e3fc257f60405160405180910390a4611b14828483611e04565b50505050565b600063ffffffff8016821115611b65576040517f08c379a0000000000000000000000000000000000000000000000000000000008152600401611b5c9061394e565b60405180910390fd5b819050919050565b6000600960009054906101000a900473ffffffffffffffffffffffffffffffffffffffff16905081600960006101000a81548173ffffffffffffffffffffffffffffffffffffffff021916908373ffffffffffffffffffffffffffffffffffffffff1602179055508173ffffffffffffffffffffffffffffffffffffffff168173ffffffffffffffffffffffffffffffffffffffff167f8be0079c531659141344cd1fd0a4f28419497f9722a3daafe3b4186f6b6457e060405160405180910390a35050565b600081600001549050919050565b6000611c54611c4e6117be565b83611ffd565b9050919050565b6000806000611c6c87878787612030565b91509150611c798161213c565b8192505050949350505050565b600080600560008473ffffffffffffffffffffffffffffffffffffffff1673ffffffffffffffffffffffffffffffffffffffff1681526020019081526020016000209050611cd381611c33565b9150611cde81612308565b50919050565b505050565b611cf483838361231e565b505050565b60008383834630604051602001611d1495949392919061396e565b6040516020818303038152906040528051906020012090509392505050565b60006002828418611d4491906139f0565b828416611d5191906130ad565b905092915050565b611d638282612349565b611d6b6124a8565b7bffffffffffffffffffffffffffffffffffffffffffffffffffffffff16611d916106a0565b1115611dd2576040517f08c379a0000000000000000000000000000000000000000000000000000000008152600401611dc990613a93565b60405180910390fd5b611de060086124cc836124e2565b50505050565b611df0828261275a565b611dfe6008612930836124e2565b50505050565b8173ffffffffffffffffffffffffffffffffffffffff168373ffffffffffffffffffffffffffffffffffffffff1614158015611e405750600081115b15611ff857600073ffffffffffffffffffffffffffffffffffffffff168373ffffffffffffffffffffffffffffffffffffffff1614611f1e57600080611ec7600760008773ffffffffffffffffffffffffffffffffffffffff1673ffffffffffffffffffffffffffffffffffffffff168152602001908152602001600020612930856124e2565b915091508473ffffffffffffffffffffffffffffffffffffffff167fdec2bacdd2f05b59de34da9b523dff8be42e5e38e818c82fdb0bae774387a7248383604051611f13929190613ab3565b60405180910390a250505b600073ffffffffffffffffffffffffffffffffffffffff168273ffffffffffffffffffffffffffffffffffffffff1614611ff757600080611fa0600760008673ffffffffffffffffffffffffffffffffffffffff1673ffffffffffffffffffffffffffffffffffffffff1681526020019081526020016000206124cc856124e2565b915091508373ffffffffffffffffffffffffffffffffffffffff167fdec2bacdd2f05b59de34da9b523dff8be42e5e38e818c82fdb0bae774387a7248383604051611fec929190613ab3565b60405180910390a250505b5b505050565b60008282604051602001612012929190613b54565b60405160208183030381529060405280519060200120905092915050565b6000807f7fffffffffffffffffffffffffffffff5d576e7357a4501ddfe92f46681b20a08360001c111561206b576000600391509150612133565b601b8560ff16141580156120835750601c8560ff1614155b15612095576000600491509150612133565b6000600187878787604051600081526020016040526040516120ba9493929190613b8b565b6020604051602081039080840390855afa1580156120dc573d6000803e3d6000fd5b505050602060405103519050600073ffffffffffffffffffffffffffffffffffffffff168173ffffffffffffffffffffffffffffffffffffffff160361212a57600060019250925050612133565b80600092509250505b94509492505050565b600060048111156121505761214f613bd0565b5b81600481111561216357612162613bd0565b5b0315612305576001600481111561217d5761217c613bd0565b5b8160048111156121905761218f613bd0565b5b036121d0576040517f08c379a00000000000000000000000000000000000000000000000000000000081526004016121c790613c4b565b60405180910390fd5b600260048111156121e4576121e3613bd0565b5b8160048111156121f7576121f6613bd0565b5b03612237576040517f08c379a000000000000000000000000000000000000000000000000000000000815260040161222e90613cb7565b60405180910390fd5b6003600481111561224b5761224a613bd0565b5b81600481111561225e5761225d613bd0565b5b0361229e576040517f08c379a000000000000000000000000000000000000000000000000000000000815260040161229590613d49565b60405180910390fd5b6004808111156122b1576122b0613bd0565b5b8160048111156122c4576122c3613bd0565b5b03612304576040517f08c379a00000000000000000000000000000000000000000000000000000000081526004016122fb90613ddb565b60405180910390fd5b5b50565b6001816000016000828254019250508190555050565b612329838383612946565b612344612335846108cd565b61233e846108cd565b83611e04565b505050565b600073ffffffffffffffffffffffffffffffffffffffff168273ffffffffffffffffffffffffffffffffffffffff16036123b8576040517f08c379a00000000000000000000000000000000000000000000000000000000081526004016123af90613e47565b60405180910390fd5b6123c460008383611ce4565b80600260008282546123d691906130ad565b92505081905550806000808473ffffffffffffffffffffffffffffffffffffffff1673ffffffffffffffffffffffffffffffffffffffff168152602001908152602001600020600082825461242b91906130ad565b925050819055508173ffffffffffffffffffffffffffffffffffffffff16600073ffffffffffffffffffffffffffffffffffffffff167fddf252ad1be2c89b69c2b068fc378daa952ba7f163c4a11628f55a4df523b3ef836040516124909190612bc4565b60405180910390a36124a460008383611ce9565b5050565b60007bffffffffffffffffffffffffffffffffffffffffffffffffffffffff905090565b600081836124da91906130ad565b905092915050565b60008060008580549050905060008114612550578560018261250491906131b9565b81548110612515576125146131ed565b5b9060005260206000200160000160049054906101000a90047bffffffffffffffffffffffffffffffffffffffffffffffffffffffff16612553565b60005b7bffffffffffffffffffffffffffffffffffffffffffffffffffffffff16925061258183858763ffffffff16565b91506000811180156125d45750438660018361259d91906131b9565b815481106125ae576125ad6131ed565b5b9060005260206000200160000160009054906101000a900463ffffffff1663ffffffff16145b15612661576125e28261294b565b866001836125f091906131b9565b81548110612601576126006131ed565b5b9060005260206000200160000160046101000a8154817bffffffffffffffffffffffffffffffffffffffffffffffffffffffff02191690837bffffffffffffffffffffffffffffffffffffffffffffffffffffffff160217905550612751565b85604051806040016040528061267643611b1a565b63ffffffff16815260200161268a8561294b565b7bffffffffffffffffffffffffffffffffffffffffffffffffffffffff168152509080600181540180825580915050600190039060005260206000200160009091909190915060008201518160000160006101000a81548163ffffffff021916908363ffffffff16021790555060208201518160000160046101000a8154817bffffffffffffffffffffffffffffffffffffffffffffffffffffffff02191690837bffffffffffffffffffffffffffffffffffffffffffffffffffffffff16021790555050505b50935093915050565b600073ffffffffffffffffffffffffffffffffffffffff168273ffffffffffffffffffffffffffffffffffffffff16036127c9576040517f08c379a00000000000000000000000000000000000000000000000000000000081526004016127c090613ed9565b60405180910390fd5b6127d582600083611ce4565b60008060008473ffffffffffffffffffffffffffffffffffffffff1673ffffffffffffffffffffffffffffffffffffffff1681526020019081526020016000205490508181101561285b576040517f08c379a000000000000000000000000000000000000000000000000000000000815260040161285290613f6b565b60405180910390fd5b8181036000808573ffffffffffffffffffffffffffffffffffffffff1673ffffffffffffffffffffffffffffffffffffffff1681526020019081526020016000208190555081600260008282546128b291906131b9565b92505081905550600073ffffffffffffffffffffffffffffffffffffffff168373ffffffffffffffffffffffffffffffffffffffff167fddf252ad1be2c89b69c2b068fc378daa952ba7f163c4a11628f55a4df523b3ef846040516129179190612bc4565b60405180910390a361292b83600084611ce9565b505050565b6000818361293e91906131b9565b905092915050565b505050565b60007bffffffffffffffffffffffffffffffffffffffffffffffffffffffff80168211156129ae576040517f08c379a00000000000000000000000000000000000000000000000000000000081526004016129a590613ffd565b60405180910390fd5b819050919050565b6040518060400160405280600063ffffffff16815260200160007bffffffffffffffffffffffffffffffffffffffffffffffffffffffff1681525090565b600081519050919050565b600082825260208201905092915050565b60005b83811015612a2e578082015181840152602081019050612a13565b60008484015250505050565b6000601f19601f8301169050919050565b6000612a56826129f4565b612a6081856129ff565b9350612a70818560208601612a10565b612a7981612a3a565b840191505092915050565b60006020820190508181036000830152612a9e8184612a4b565b905092915050565b600080fd5b600073ffffffffffffffffffffffffffffffffffffffff82169050919050565b6000612ad682612aab565b9050919050565b612ae681612acb565b8114612af157600080fd5b50565b600081359050612b0381612add565b92915050565b6000819050919050565b612b1c81612b09565b8114612b2757600080fd5b50565b600081359050612b3981612b13565b92915050565b60008060408385031215612b5657612b55612aa6565b5b6000612b6485828601612af4565b9250506020612b7585828601612b2a565b9150509250929050565b60008115159050919050565b612b9481612b7f565b82525050565b6000602082019050612baf6000830184612b8b565b92915050565b612bbe81612b09565b82525050565b6000602082019050612bd96000830184612bb5565b92915050565b600080600060608486031215612bf857612bf7612aa6565b5b6000612c0686828701612af4565b9350506020612c1786828701612af4565b9250506040612c2886828701612b2a565b9150509250925092565b600060ff82169050919050565b612c4881612c32565b82525050565b6000602082019050612c636000830184612c3f565b92915050565b6000819050919050565b612c7c81612c69565b82525050565b6000602082019050612c976000830184612c73565b92915050565b600060208284031215612cb357612cb2612aa6565b5b6000612cc184828501612b2a565b91505092915050565b600060208284031215612ce057612cdf612aa6565b5b6000612cee84828501612af4565b91505092915050565b612d0081612acb565b82525050565b6000602082019050612d1b6000830184612cf7565b92915050565b600063ffffffff82169050919050565b612d3a81612d21565b82525050565b6000602082019050612d556000830184612d31565b92915050565b612d6481612c32565b8114612d6f57600080fd5b50565b600081359050612d8181612d5b565b92915050565b612d9081612c69565b8114612d9b57600080fd5b50565b600081359050612dad81612d87565b92915050565b60008060008060008060c08789031215612dd057612dcf612aa6565b5b6000612dde89828a01612af4565b9650506020612def89828a01612b2a565b9550506040612e0089828a01612b2a565b9450506060612e1189828a01612d72565b9350506080612e2289828a01612d9e565b92505060a0612e3389828a01612d9e565b9150509295509295509295565b600080600080600080600060e0888a031215612e5f57612e5e612aa6565b5b6000612e6d8a828b01612af4565b9750506020612e7e8a828b01612af4565b9650506040612e8f8a828b01612b2a565b9550506060612ea08a828b01612b2a565b9450506080612eb18a828b01612d72565b93505060a0612ec28a828b01612d9e565b92505060c0612ed38a828b01612d9e565b91505092959891949750929550565b60008060408385031215612ef957612ef8612aa6565b5b6000612f0785828601612af4565b9250506020612f1885828601612af4565b9150509250929050565b612f2b81612d21565b8114612f3657600080fd5b50565b600081359050612f4881612f22565b92915050565b60008060408385031215612f6557612f64612aa6565b5b6000612f7385828601612af4565b9250506020612f8485828601612f39565b9150509250929050565b612f9781612d21565b82525050565b60007bffffffffffffffffffffffffffffffffffffffffffffffffffffffff82169050919050565b612fce81612f9d565b82525050565b604082016000820151612fea6000850182612f8e565b506020820151612ffd6020850182612fc5565b50505050565b60006040820190506130186000830184612fd4565b92915050565b7f4e487b7100000000000000000000000000000000000000000000000000000000600052602260045260246000fd5b6000600282049050600182168061306557607f821691505b6020821081036130785761307761301e565b5b50919050565b7f4e487b7100000000000000000000000000000000000000000000000000000000600052601160045260246000fd5b60006130b882612b09565b91506130c383612b09565b92508282019050808211156130db576130da61307e565b5b92915050565b7f4552433230566f7465733a20626c6f636b206e6f7420796574206d696e656400600082015250565b6000613117601f836129ff565b9150613122826130e1565b602082019050919050565b600060208201905081810360008301526131468161310a565b9050919050565b7f4f776e61626c653a2063616c6c6572206973206e6f7420746865206f776e6572600082015250565b60006131836020836129ff565b915061318e8261314d565b602082019050919050565b600060208201905081810360008301526131b281613176565b9050919050565b60006131c482612b09565b91506131cf83612b09565b92508282039050818111156131e7576131e661307e565b5b92915050565b7f4e487b7100000000000000000000000000000000000000000000000000000000600052603260045260246000fd5b7f45524332303a2064656372656173656420616c6c6f77616e63652062656c6f7760008201527f207a65726f000000000000000000000000000000000000000000000000000000602082015250565b60006132786025836129ff565b91506132838261321c565b604082019050919050565b600060208201905081810360008301526132a78161326b565b9050919050565b7f4552433230566f7465733a207369676e61747572652065787069726564000000600082015250565b60006132e4601d836129ff565b91506132ef826132ae565b602082019050919050565b60006020820190508181036000830152613313816132d7565b9050919050565b600060808201905061332f6000830187612c73565b61333c6020830186612cf7565b6133496040830185612bb5565b6133566060830184612bb5565b95945050505050565b7f4552433230566f7465733a20696e76616c6964206e6f6e636500000000000000600082015250565b60006133956019836129ff565b91506133a08261335f565b602082019050919050565b600060208201905081810360008301526133c481613388565b9050919050565b7f45524332305065726d69743a206578706972656420646561646c696e65000000600082015250565b6000613401601d836129ff565b915061340c826133cb565b602082019050919050565b60006020820190508181036000830152613430816133f4565b9050919050565b600060c08201905061344c6000830189612c73565b6134596020830188612cf7565b6134666040830187612cf7565b6134736060830186612bb5565b6134806080830185612bb5565b61348d60a0830184612bb5565b979650505050505050565b7f45524332305065726d69743a20696e76616c6964207369676e61747572650000600082015250565b60006134ce601e836129ff565b91506134d982613498565b602082019050919050565b600060208201905081810360008301526134fd816134c1565b9050919050565b7f4f776e61626c653a206e6577206f776e657220697320746865207a65726f206160008201527f6464726573730000000000000000000000000000000000000000000000000000602082015250565b60006135606026836129ff565b915061356b82613504565b604082019050919050565b6000602082019050818103600083015261358f81613553565b9050919050565b7f45524332303a20617070726f76652066726f6d20746865207a65726f2061646460008201527f7265737300000000000000000000000000000000000000000000000000000000602082015250565b60006135f26024836129ff565b91506135fd82613596565b604082019050919050565b60006020820190508181036000830152613621816135e5565b9050919050565b7f45524332303a20617070726f766520746f20746865207a65726f20616464726560008201527f7373000000000000000000000000000000000000000000000000000000000000602082015250565b60006136846022836129ff565b915061368f82613628565b604082019050919050565b600060208201905081810360008301526136b381613677565b9050919050565b7f45524332303a20696e73756666696369656e7420616c6c6f77616e6365000000600082015250565b60006136f0601d836129ff565b91506136fb826136ba565b602082019050919050565b6000602082019050818103600083015261371f816136e3565b9050919050565b7f45524332303a207472616e736665722066726f6d20746865207a65726f20616460008201527f6472657373000000000000000000000000000000000000000000000000000000602082015250565b60006137826025836129ff565b915061378d82613726565b604082019050919050565b600060208201905081810360008301526137b181613775565b9050919050565b7f45524332303a207472616e7366657220746f20746865207a65726f206164647260008201527f6573730000000000000000000000000000000000000000000000000000000000602082015250565b60006138146023836129ff565b915061381f826137b8565b604082019050919050565b6000602082019050818103600083015261384381613807565b9050919050565b7f45524332303a207472616e7366657220616d6f756e742065786365656473206260008201527f616c616e63650000000000000000000000000000000000000000000000000000602082015250565b60006138a66026836129ff565b91506138b18261384a565b604082019050919050565b600060208201905081810360008301526138d581613899565b9050919050565b7f53616665436173743a2076616c756520646f65736e27742066697420696e203360008201527f3220626974730000000000000000000000000000000000000000000000000000602082015250565b60006139386026836129ff565b9150613943826138dc565b604082019050919050565b600060208201905081810360008301526139678161392b565b9050919050565b600060a0820190506139836000830188612c73565b6139906020830187612c73565b61399d6040830186612c73565b6139aa6060830185612bb5565b6139b76080830184612cf7565b9695505050505050565b7f4e487b7100000000000000000000000000000000000000000000000000000000600052601260045260246000fd5b60006139fb82612b09565b9150613a0683612b09565b925082613a1657613a156139c1565b5b828204905092915050565b7f4552433230566f7465733a20746f74616c20737570706c79207269736b73206f60008201527f766572666c6f77696e6720766f74657300000000000000000000000000000000602082015250565b6000613a7d6030836129ff565b9150613a8882613a21565b604082019050919050565b60006020820190508181036000830152613aac81613a70565b9050919050565b6000604082019050613ac86000830185612bb5565b613ad56020830184612bb5565b9392505050565b600081905092915050565b7f1901000000000000000000000000000000000000000000000000000000000000600082015250565b6000613b1d600283613adc565b9150613b2882613ae7565b600282019050919050565b6000819050919050565b613b4e613b4982612c69565b613b33565b82525050565b6000613b5f82613b10565b9150613b6b8285613b3d565b602082019150613b7b8284613b3d565b6020820191508190509392505050565b6000608082019050613ba06000830187612c73565b613bad6020830186612c3f565b613bba6040830185612c73565b613bc76060830184612c73565b95945050505050565b7f4e487b7100000000000000000000000000000000000000000000000000000000600052602160045260246000fd5b7f45434453413a20696e76616c6964207369676e61747572650000000000000000600082015250565b6000613c356018836129ff565b9150613c4082613bff565b602082019050919050565b60006020820190508181036000830152613c6481613c28565b9050919050565b7f45434453413a20696e76616c6964207369676e6174757265206c656e67746800600082015250565b6000613ca1601f836129ff565b9150613cac82613c6b565b602082019050919050565b60006020820190508181036000830152613cd081613c94565b9050919050565b7f45434453413a20696e76616c6964207369676e6174757265202773272076616c60008201527f7565000000000000000000000000000000000000000000000000000000000000602082015250565b6000613d336022836129ff565b9150613d3e82613cd7565b604082019050919050565b60006020820190508181036000830152613d6281613d26565b9050919050565b7f45434453413a20696e76616c6964207369676e6174757265202776272076616c60008201527f7565000000000000000000000000000000000000000000000000000000000000602082015250565b6000613dc56022836129ff565b9150613dd082613d69565b604082019050919050565b60006020820190508181036000830152613df481613db8565b9050919050565b7f45524332303a206d696e7420746f20746865207a65726f206164647265737300600082015250565b6000613e31601f836129ff565b9150613e3c82613dfb565b602082019050919050565b60006020820190508181036000830152613e6081613e24565b9050919050565b7f45524332303a206275726e2066726f6d20746865207a65726f2061646472657360008201527f7300000000000000000000000000000000000000000000000000000000000000602082015250565b6000613ec36021836129ff565b9150613ece82613e67565b604082019050919050565b60006020820190508181036000830152613ef281613eb6565b9050919050565b7f45524332303a206275726e20616d6f756e7420657863656564732062616c616e60008201527f6365000000000000000000000000000000000000000000000000000000000000602082015250565b6000613f556022836129ff565b9150613f6082613ef9565b604082019050919050565b60006020820190508181036000830152613f8481613f48565b9050919050565b7f53616665436173743a2076616c756520646f65736e27742066697420696e203260008201527f3234206269747300000000000000000000000000000000000000000000000000602082015250565b6000613fe76027836129ff565b9150613ff282613f8b565b604082019050919050565b6000602082019050818103600083015261401681613fda565b905091905056fea2646970667358221220b5b105f470ba7d24f02ff361a539996b598a031df6e1d18d007ca9ae609f131264736f6c63430008180033",
  "linkReferences": {},
  "deployedLinkReferences": {}
}