{
  "_format": "hh-sol-artifact-1",
  "contractName": "baseModule",
  "sourceName": "contracts/baseModule.sol",
  "abi": [
    {
      "inputs": [
        {
          "internalType": "string",
          "name": "paramProposal",
          "type": "string"
        },
        {
          "internalType": "address",
          "name": "paramOpTokenAddress",
          "type": "address"
        }
      ],
      "stateMutability": "nonpayable",
      "type": "constructor"
    },
    {
      "inputs": [
        {
          "internalType": "address",
          "name": "",
          "type": "address"
        }
      ],
      "name": "actualDelegatorDelegationQuantity",
      "outputs": [
        {
          "internalType": "uint256",
          "name": "",
          "type": "uint256"
        }
      ],
      "stateMutability": "view",
      "type": "function"
    },
    {
      "inputs": [
        {
          "internalType": "address",
          "name": "",
          "type": "address"
        }
      ],
      "name": "delegatorDelegationsEpochs",
      "outputs": [
        {
          "internalType": "uint32",
          "name": "",
          "type": "uint32"
        }
      ],
      "stateMutability": "view",
      "type": "function"
    },
    {
      "inputs": [],
      "name": "gobyingModuleDelegate",
      "outputs": [
        {
          "internalType": "address",
          "name": "",
          "type": "address"
        }
      ],
      "stateMutability": "view",
      "type": "function"
    },
    {
      "inputs": [],
      "name": "opTokenAddress",
      "outputs": [
        {
          "internalType": "address",
          "name": "",
          "type": "address"
        }
      ],
      "stateMutability": "view",
      "type": "function"
    },
    {
      "inputs": [],
      "name": "proposal",
      "outputs": [
        {
          "internalType": "string",
          "name": "",
          "type": "string"
        }
      ],
      "stateMutability": "view",
      "type": "function"
    }
  ],
  "bytecode": "0x60806040523480156200001157600080fd5b5060405162000bcb38038062000bcb8339818101604052810190620000379190620002ca565b336000806101000a81548173ffffffffffffffffffffffffffffffffffffffff021916908373ffffffffffffffffffffffffffffffffffffffff16021790555081600190816200008891906200057b565b5080600260006101000a81548173ffffffffffffffffffffffffffffffffffffffff021916908373ffffffffffffffffffffffffffffffffffffffff160217905550505062000662565b6000604051905090565b600080fd5b600080fd5b600080fd5b600080fd5b6000601f19601f8301169050919050565b7f4e487b7100000000000000000000000000000000000000000000000000000000600052604160045260246000fd5b6200013b82620000f0565b810181811067ffffffffffffffff821117156200015d576200015c62000101565b5b80604052505050565b600062000172620000d2565b905062000180828262000130565b919050565b600067ffffffffffffffff821115620001a357620001a262000101565b5b620001ae82620000f0565b9050602081019050919050565b60005b83811015620001db578082015181840152602081019050620001be565b60008484015250505050565b6000620001fe620001f88462000185565b62000166565b9050828152602081018484840111156200021d576200021c620000eb565b5b6200022a848285620001bb565b509392505050565b600082601f8301126200024a5762000249620000e6565b5b81516200025c848260208601620001e7565b91505092915050565b600073ffffffffffffffffffffffffffffffffffffffff82169050919050565b6000620002928262000265565b9050919050565b620002a48162000285565b8114620002b057600080fd5b50565b600081519050620002c48162000299565b92915050565b60008060408385031215620002e457620002e3620000dc565b5b600083015167ffffffffffffffff811115620003055762000304620000e1565b5b620003138582860162000232565b92505060206200032685828601620002b3565b9150509250929050565b600081519050919050565b7f4e487b7100000000000000000000000000000000000000000000000000000000600052602260045260246000fd5b600060028204905060018216806200038357607f821691505b6020821081036200039957620003986200033b565b5b50919050565b60008190508160005260206000209050919050565b60006020601f8301049050919050565b600082821b905092915050565b600060088302620004037fffffffffffffffffffffffffffffffffffffffffffffffffffffffffffffffff82620003c4565b6200040f8683620003c4565b95508019841693508086168417925050509392505050565b6000819050919050565b6000819050919050565b60006200045c62000456620004508462000427565b62000431565b62000427565b9050919050565b6000819050919050565b62000478836200043b565b62000490620004878262000463565b848454620003d1565b825550505050565b600090565b620004a762000498565b620004b48184846200046d565b505050565b5b81811015620004dc57620004d06000826200049d565b600181019050620004ba565b5050565b601f8211156200052b57620004f5816200039f565b6200050084620003b4565b8101602085101562000510578190505b620005286200051f85620003b4565b830182620004b9565b50505b505050565b600082821c905092915050565b6000620005506000198460080262000530565b1980831691505092915050565b60006200056b83836200053d565b9150826002028217905092915050565b620005868262000330565b67ffffffffffffffff811115620005a257620005a162000101565b5b620005ae82546200036a565b620005bb828285620004e0565b600060209050601f831160018114620005f35760008415620005de578287015190505b620005ea85826200055d565b8655506200065a565b601f19841662000603866200039f565b60005b828110156200062d5784890151825560018201915060208501945060208101905062000606565b868310156200064d578489015162000649601f8916826200053d565b8355505b6001600288020188555050505b505050505050565b61055980620006726000396000f3fe608060405234801561001057600080fd5b50600436106100565760003560e01c80620811211461005b578063313407af1461008b5780635ce1eda0146100a9578063753ec103146100d9578063f1c5ac71146100f7575b600080fd5b6100756004803603810190610070919061030a565b610115565b6040516100829190610356565b60405180910390f35b610093610138565b6040516100a09190610380565b60405180910390f35b6100c360048036038101906100be919061030a565b6101db565b6040516100d091906103b4565b60405180910390f35b6100e16101f3565b6040516100ee919061045f565b60405180910390f35b6100ff610281565b60405161010c9190610380565b60405180910390f35b60046020528060005260406000206000915054906101000a900463ffffffff1681565b6000600260009054906101000a900473ffffffffffffffffffffffffffffffffffffffff1673ffffffffffffffffffffffffffffffffffffffff1663587cde1e336040518263ffffffff1660e01b81526004016101959190610380565b602060405180830381865afa1580156101b2573d6000803e3d6000fd5b505050506040513d601f19601f820116820180604052508101906101d69190610496565b905090565b60036020528060005260406000206000915090505481565b60018054610200906104f2565b80601f016020809104026020016040519081016040528092919081815260200182805461022c906104f2565b80156102795780601f1061024e57610100808354040283529160200191610279565b820191906000526020600020905b81548152906001019060200180831161025c57829003601f168201915b505050505081565b600260009054906101000a900473ffffffffffffffffffffffffffffffffffffffff1681565b600080fd5b600073ffffffffffffffffffffffffffffffffffffffff82169050919050565b60006102d7826102ac565b9050919050565b6102e7816102cc565b81146102f257600080fd5b50565b600081359050610304816102de565b92915050565b6000602082840312156103205761031f6102a7565b5b600061032e848285016102f5565b91505092915050565b600063ffffffff82169050919050565b61035081610337565b82525050565b600060208201905061036b6000830184610347565b92915050565b61037a816102cc565b82525050565b60006020820190506103956000830184610371565b92915050565b6000819050919050565b6103ae8161039b565b82525050565b60006020820190506103c960008301846103a5565b92915050565b600081519050919050565b600082825260208201905092915050565b60005b838110156104095780820151818401526020810190506103ee565b60008484015250505050565b6000601f19601f8301169050919050565b6000610431826103cf565b61043b81856103da565b935061044b8185602086016103eb565b61045481610415565b840191505092915050565b600060208201905081810360008301526104798184610426565b905092915050565b600081519050610490816102de565b92915050565b6000602082840312156104ac576104ab6102a7565b5b60006104ba84828501610481565b91505092915050565b7f4e487b7100000000000000000000000000000000000000000000000000000000600052602260045260246000fd5b6000600282049050600182168061050a57607f821691505b60208210810361051d5761051c6104c3565b5b5091905056fea26469706673582212208561c52e936010083c9eb964fb6c4dbc266a87be4f94370506e43c86aaf9c32e64736f6c63430008180033",
  "linkReferences": {},
  "deployedLinkReferences": {}
}